{
  "_format": "hh-sol-artifact-1",
  "contractName": "GovernorFactory",
  "sourceName": "contracts/GovernorFactory.sol",
  "abi": [
    {
      "inputs": [
        {
          "internalType": "address",
          "name": "_governor",
          "type": "address"
        },
        {
          "internalType": "address",
          "name": "_timelockControl",
          "type": "address"
        }
      ],
      "stateMutability": "nonpayable",
      "type": "constructor"
    },
    {
      "anonymous": false,
      "inputs": [
        {
          "indexed": false,
          "internalType": "contract IFollowNFT",
          "name": "followNFT",
          "type": "address"
        },
        {
          "indexed": false,
          "internalType": "address",
          "name": "governorAddress",
          "type": "address"
        },
        {
          "indexed": false,
          "internalType": "address",
          "name": "timelockAddress",
          "type": "address"
        }
      ],
      "name": "GovernorCreated",
      "type": "event"
    },
    {
      "inputs": [
        {
          "internalType": "uint256",
          "name": "profileId",
          "type": "uint256"
        },
        {
          "internalType": "uint256",
          "name": "minDelay",
          "type": "uint256"
        },
        {
          "internalType": "address[]",
          "name": "proposers",
          "type": "address[]"
        },
        {
          "internalType": "address[]",
          "name": "executors",
          "type": "address[]"
        }
      ],
      "name": "createGovernor",
      "outputs": [],
      "stateMutability": "nonpayable",
      "type": "function"
    },
    {
      "inputs": [],
      "name": "governor",
      "outputs": [
        {
          "internalType": "address",
          "name": "",
          "type": "address"
        }
      ],
      "stateMutability": "view",
      "type": "function"
    },
    {
      "inputs": [],
      "name": "timelockControl",
      "outputs": [
        {
          "internalType": "address",
          "name": "",
          "type": "address"
        }
      ],
      "stateMutability": "view",
      "type": "function"
    }
  ],
  "bytecode": "0x608060405234801561001057600080fd5b5060405161069e38038061069e83398101604081905261002f916100d6565b6001600160a01b0382166100895760405162461bcd60e51b815260206004820152601460248201527f476f7665726e6f72206e6f7420646566696e6564000000000000000000000000604482015260640160405180910390fd5b600080546001600160a01b039384166001600160a01b03199182161790915560018054929093169116179055610109565b80516001600160a01b03811681146100d157600080fd5b919050565b600080604083850312156100e957600080fd5b6100f2836100ba565b9150610100602084016100ba565b90509250929050565b610586806101186000396000f3fe608060405234801561001057600080fd5b50600436106100415760003560e01c80630c340a241461004657806350b0336614610075578063700c0ba81461008a575b600080fd5b600054610059906001600160a01b031681565b6040516001600160a01b03909116815260200160405180910390f35b61008861008336600461043c565b61009d565b005b600154610059906001600160a01b031681565b60405163a9ec656360e01b815260048101859052734bf0c7ad32fd2d32089790a54485e23f5c7736c090600090829063a9ec656390602401602060405180830381865afa1580156100f2573d6000803e3d6000fd5b505050506040513d601f19601f8201168201806040525081019061011691906104b3565b90506001600160a01b03811661016b5760405162461bcd60e51b8152602060048201526015602482015274139bc8195e1a5cdd1a5b99c8119bdb1b1bddd39195605a1b60448201526064015b60405180910390fd5b60008054829190610184906001600160a01b03166102c4565b60015490915060009061019f906001600160a01b03166102c4565b604051633fde3ce360e11b815290915081906001600160a01b03821690637fbc79c6906101d4908c908c908c9060040161051b565b600060405180830381600087803b1580156101ee57600080fd5b505af1158015610202573d6000803e3d6000fd5b505060405163485cc95560e01b81526001600160a01b03878116600483015284811660248301528693508316915063485cc95590604401600060405180830381600087803b15801561025357600080fd5b505af1158015610267573d6000803e3d6000fd5b5050604080516001600160a01b038981168252888116602083015287168183015290517facd3b94a52fb15ae63ba7b79c1934dc24bf27bfc8c53d83592b09c7e12404a049350908190036060019150a15050505050505050505050565b6000604051733d602d80600a3d3981f3363d3d373d3d3d363d7360601b81528260601b60148201526e5af43d82803e903d91602b57fd5bf360881b60288201526037816000f09150506001600160a01b03811661035c5760405162461bcd60e51b8152602060048201526016602482015275115490cc4c4d8dce8818dc99585d194819985a5b195960521b6044820152606401610162565b919050565b634e487b7160e01b600052604160045260246000fd5b6001600160a01b038116811461038c57600080fd5b50565b803561035c81610377565b600082601f8301126103ab57600080fd5b8135602067ffffffffffffffff808311156103c8576103c8610361565b8260051b604051601f19603f830116810181811084821117156103ed576103ed610361565b60405293845285810183019383810192508785111561040b57600080fd5b83870191505b84821015610431576104228261038f565b83529183019190830190610411565b979650505050505050565b6000806000806080858703121561045257600080fd5b8435935060208501359250604085013567ffffffffffffffff8082111561047857600080fd5b6104848883890161039a565b9350606087013591508082111561049a57600080fd5b506104a78782880161039a565b91505092959194509250565b6000602082840312156104c557600080fd5b81516104d081610377565b9392505050565b600081518084526020808501945080840160005b838110156105105781516001600160a01b0316875295820195908201906001016104eb565b509495945050505050565b83815260606020820152600061053460608301856104d7565b828103604084015261054681856104d7565b969550505050505056fea264697066735822122083c56ca13b49e752b2ce3c6283d89d4b60c29b0f33f806f189c0bfd8c3dbe15164736f6c634300080d0033",
  "linkReferences": {},
  "deployedLinkReferences": {}
}